:020000040040BA
:10000000A55AA55A01000000000000000020400091
:100010000000000000204000000000000020400020
:1000200000000000000000000000000000000000D0
:1000300000000000000000000000000000000000C0
:1000400000000000000000000000000000000000B0
:1000500000000000000000000000000000000000A0
:102000000000012021244000C95A4000CB5A400062
:10201000CD5A4000CF5A4000D15A40000000000085
:10202000000000000000000000000000D35A400043
:10203000D55A400000000000D75A4000D95A40004D
:10204000DB5A4000DB5A4000DB5A4000DB5A4000BC
:10205000DB5A4000DB5A4000DB5A4000DB5A4000AC
:10206000DB5A4000DB5A4000DB5A4000DB5A40009C
:10207000DB5A4000DB5A4000DB5A4000DB5A40008C
:10240000DB5A4000DB5A400000BF00BF00BF00BFE6
:10241000FFF7FABF0000000000000000000000000D
:1024200072B64FF000004FF000014FF000024FF085
:1024300000034FF000044FF000054FF000064FF08E
:1024400000074FF0640001380028FCDC50480168A8
:102450004FF0807201EA0201002924D14D48016841
:102460004FF0807241EA020101604B4801684FF071
:10247000010241EA02010160484845F6F02101608D
:102480004AF20F510160444801684FF0010201EA2D
:1024900002010129F7D03E4801684FF0807201EA3D
:1024A00002010029F7D03E484CF2205101604DF660
:1024B000281101603B483C4901603C483C490160AF
:1024C0003C49086820F0040040F0010008603A49E7
:1024D000086820F0040040F0010008603748002838
:1024E00014D0374801684FF0010201EA02010029C7
:1024F00002D0344A344B01E0344A334B9A4205DA75
:1025000000200021E2E802019A42FBDB304800286B
:1025100009D0304A304B9A4205DA00200021E2E827
:1025200002019A42FBDB2D48002809D02C4A2D4B92
:102530009A4205DA00200021E2E802019A42FBDB20
:10254000294800684FF05A318842F9D0274880F373
:102550000888274801684FF00000814202D003F04C
:102560002DFB01E003F0E4FA10482249016003F07A
:10257000C7FC03F053FB62B603F04EFB00F03CF8DF
:1025800000BFFEE7AFF30080AFF30080AFF3008041
:1025900010C32D4030C32D4004C32D4000C02D403A
:1025A0001000274000002740400000FF08ED00E039
:1025B0000020400094EF00E090EF00E001000000F8
:1025C00000C0284000004020008041200000402042
:1025D00001000000000000200000012001000000B8
:1025E0000000000000800000B04E402000000120EC
:1025F000040026400000002038B5364808F078FF77
:10260000354804F02BF835490D20354C0EF08AFD85
:10261000344808F027F83449002004F10A0508F08E
:10262000A5F93249012008F0A1F93149032008F049
:102630009DF9012204F10801104608F089FC0122ED
:1026400004F10901032008F083FC2A49002009F065
:102650002BF82949002009F03DF80021084609F02F
:10266000E5F8002147F23052084609F099F800F0E9
:1026700098F900F09DF9214B214A2846214901F0A3
:10268000B3FBB4F8FE012049213080B2A4F8FE016A
:10269000284401F0C9FBB4F8FE112846353189B24F
:1026A000A4F8FE1100F042F900F0DAFB00F076F831
:1026B00000F0A8F800F07CF900F026FC00F096FA93
:1026C00000F040F9D4F80032002BF3D0D4F8000227
:1026D00038BD00BF5C2A4100A4244100181B410002
:1026E0005C27402058294100342A41000C2A41002F
:1026F000E4294100882A4100782A410091184100CC
:102700009A184100A6184100B9184100024B5868B8
:1027100000F00300704700BF0000264082B08DF833
:1027200007009DF807300BB900BEFDE702B0704707
:1027300082B08DF807009DF807300BB900BEFDE7A9
:1027400002B07047EFF310807047EFF310807047CE
:10275000EFF310807047EFF310807047EFF31080B5
:102760007047EFF310807047EFF310807047EFF37E
:102770001080704782B08DF807009DF807300BB9C4
:1027800000BEFDE702B0704782B08DF807009DF8EB
:1027900007300BB900BEFDE702B0704710B500F07E
:1027A0000FF9044628B3134A0020134905F0B0FC82
:1027B000002006F09BF90121002006F045FBE3888C
:1027C0000E4A0121002005F0BFFD6FF0604201219B
:1027D000002006F09BF90023094A0121184605F064
:1027E000E3FD002006F08AF90020BDE8104006F065
:1027F00007BB10BDF4284100545740206816410023
:102800008000402008B5134A0220134905F080FCDF
:10281000022006F06BF90121022006F015FB40F2C0
:10282000DF730E4A0321022005F08EFD6FF0604237
:102830000321022006F06AF90023094A032102203D
:1028400005F0B2FD022006F059F90220BDE808406B
:1028500006F0D6BA90284100245340207816410053
:10286000D000402010B5084C626804F1080094F8CC
:10287000481000F08FFE0023224601211846BDE8D3
:10288000104005F091BD00BF8000402013B5044604
:1028900000F096F830B100218388034A084600947E
:1028A00005F024FD02B010BD8816410007B500F008
:1028B00087F858B1037B012B08D1064A0421B0F8F0
:1028C0000D3000200092044A05F010FD03B05DF8C1
:1028D00004FB00BF200140209816410013B5094CAD
:1028E00000230321022004F15002583405F05CFD5E
:1028F000022140F22473044A0846009405F0F6FCD5
:1029000002B010BD80004020A8164100054A0649CB
:102910001388C85401339BB2B3F5FD5F28BF002371
:1029200013807047780140207C01402070B5064636
:102930000D460024AC4200DB70BD305D0134FFF772
:10294000E5FFF7E713B50D4C638822889A4212D051
:102950000B4A0DF107010020D35C01228DF80730EE
:1029600008F074F938B9638801339BB2B3F5FD5FA1
:1029700034BF6380608002B010BD00BF780140208A
:102980007C0140200A4619B10146012008F05EB9D9
:1029900070470A4619B10146032008F057B970473D
:1029A0007047024900200EF00FBE00BF502B4100BF
:1029B00000200EF00DBE0022032110460EF00CBECA
:1029C0000248437C012B18BF002070471C21402087
:1029D00070B41B4B4C2400259C7475249875000A18
:1029E000DC747824D875080A1C75012458765C7547
:1029F000CCB21C76A8B2814211D801F1080014446F
:102A00000025A24217D11A180B440E480B319574B9
:102A10000D22DA760A221A7770BCFFF7BABFB0F53A
:102A2000007F3CBF0830565D05F101053CBF13FA3D
:102A300080F08674DEE712F8016B7540E1E700BFB5
:102A40001C2140202E21402038B5664C40F20A223D
:102A5000B4F81E3214FA83F383F82002B4F81E325D
:102A600001339BB2A4F81E32B4F81E329BB29342DB
:102A700004D90023C4F82C34A4F81E32D4F82C3422
:102A8000062B43D8DFE803F004192027505A6500CD
:102A9000B4F81E329BB2032B4FD194F820324C2B4A
:102AA00034D194F82132752B30D194F82232782B1E
:102AB0002CD10123C4F82C343FE0B4F81E329BB271
:102AC000042B3AD10223F5E7B4F81E329BB2062B51
:102AD00033D10323EEE7B4F81E329BB2082B2CD17E
:102AE000B4F81E32B4F81E2214FA83F314FA82F2F8
:102AF00093F81F1292F81E3243EA0123A4F83034EF
:102B0000B4F830349BB2B3F5007F05D90023C4F884
:102B10002C34A4F81E3210E0B4F830349BB20BB958
:102B20000523C7E70423C5E7B4F81E22B4F8303400
:102B300092B29BB208339A42F2D038BDB4F81E224A
:102B4000B4F8303492B29BB209339A42F5D10623DD
:102B5000B0E7B4F81E22B4F8303492B29BB20B3313
:102B60009A42EAD1B4F8303414FA83F393F8293254
:102B70000D2BCBD1B4F8303414FA83F393F82A3206
:102B80000A2BC3D10123B4F82652174984F83234F2
:102B90002A4694F8203201F50570A4F83A542544E9
:102BA00084F8343494F8213284F8353494F822329D
:102BB00084F8363494F8233284F83734B4F8243265
:102BC000A4F8383401F034F895F8283284F83C360B
:102BD00095F8293284F83D3695F82A3284F83E3645
:102BE00094E700BF1C214020442340207FB5814C46
:102BF00094F83234012B3ED1002384F8323494F817
:102C000037342BB17C4804B0BDE8704001F0C8B83F
:102C100094F83C0604F23C4194F83A641A46D5B262
:102C2000AE4203D8984206D07448ECE711F8015B35
:102C300001326B40F3E7B4F83854B5F5007F28D083
:102C400012D8B5F5807F18D040F201139D4212D101
:102C50006B4801F0A5F8002301AA02212846ADF82F
:102C60000430FFF7B5FEFEE7B5F5407F75D0B5F54A
:102C7000806F00F0A38004B070BD624801F090F84E
:102C8000614B624A1988284604B0BDE87040FFF7DE
:102C90009FBE5F4801F084F80023ADF800304FF686
:102CA000FF73ADF80430B4F83A34112B09D0594809
:102CB00001F076F801AA02214FF40070FFF788FEB8
:102CC000D9E7554BA3F23C4203F1100153F8040B32
:102CD0008B4242F8040BF9D11B7813702368DDB2E4
:102CE000012D01D04D48E3E71B0AB3F5FA7F01D06F
:102CF0004B48DDE74B4801F053F821684A48C9B218
:102D000000F0DAFF21684948090A00F0D5FFA188E0
:102D1000474800F0D1FFE188464800F0CDFF218907
:102D2000454800F0C9FF6189444800F0C5FF217B98
:102D3000434800F0C1FFB4F80D10424800F0BCFF5A
:102D4000B4F80F10404800F0B7FF6A4602214FF474
:102D50000070FFF73DFE65748DE73C4801F020F8F8
:102D60003B4801F01DF821682F48C9B200F0A4FFCC
:102D700021682E48090A00F09FFFA1882C4800F026
:102D80009BFFE1882B4800F097FF21892A4800F03B
:102D900093FF6189294800F08FFF217B284800F0CC
:102DA0008BFFB4F80D10274800F086FFB4F80F1021
:102DB000254800F081FF0F4A112164E7254800F003
:102DC000EFFF254A4FF6FF7351681068ADF80030E9
:102DD00001AB128903C31A802846637C012B19BFFB
:102DE0006A46022101AA0A21FFF7F2FD1B4800F002
:102DF000D7FF40E71C214020C7164100DD164100E7
:102E0000F7164100061741005A2940206627402046
:102E1000181741002B174100582540203E1741004C
:102E2000591741003A184100751741008D174100AC
:102E3000A6174100B9174100CD174100E317410023
:102E4000F8174100061841001418410022184100EB
:102E50003618410043184100BD1641005918410081
:102E600070B50D4D0D4C0E4E6B7C23B10D48BDE879
:102E7000704000F095BFFFF79BFD23889BB233B9EC
:102E800064234FF40071304623800EF054F8FFF7AE
:102E9000ADFEFFF757FDE7E71C2140202C604020E6
:102EA000061729406B184100024A138801339BB270
:102EB000138070475C274020014B188880B2704710
:102EC0005C274020024B1B88181A80B2704700BF55
:102ED0005C2740200A4A13889BB21BB11388013B30
:102EE0009BB21380074B5A8892B21AB15A88013AA2
:102EF00092B25A809A88013292B29A80FFF7D4BF78
:102F00002C6040205C27402010B5124CE28810460F
:102F1000FFF7D8FF0244E28008B100F07FFD63882C
:102F20009BB23BB9FFF74CFD20B1B0F80F30638086
:102F3000FFF7BCFC084A13889BB24BB94FF47A7375
:102F40004FF4007105481380BDE810400DF0F3BF49
:102F500010BD00BF5C2740202C6040200617294090
:102F600011B908B9FFF77EBC704708B541B902280E
:102F700006D1044800F014FFBDE80840FFF7AEBCDE
:102F800008BD00BF7B184100014800F009BF00BF29
:102F900088184100704710B5144608461146FFF7DF
:102FA000C5FC204610BD00BF84B038B504AC0D464A
:102FB00084E80F00104C9DF81230BDF81020601D01
:102FC000A3709DF8133022800A46E37006A99DF88D
:102FD0001430237100F02CFE63199DF81721204650
:102FE000E91D5A719DF818219A71FFF7CBFC00205A
:102FF000BDE8384004B07047642940202DE9F04F07
:10300000ADF5477D164680468B46FF22002142A83B
:1030100040AC00F035FE204B002568F07F0893F8A7
:103020000090324693F801A059469F780DF209109E
:10303000013684F8009084F801A0A770E57084F848
:10304000088000F0F5FD4FF48672214683A8666083
:1030500000F0EEFD85A92B462A46013211F8010B3E
:10306000964283EA0003F8D889EA0A0944A9FC22B7
:10307000684687EA09077E40734084F80731ED23EC
:1030800084F8083100F0D4FD94E80F00FFF78CFFBE
:103090000DF5477DBDE8F08F40604020434BB3F80D
:1030A000002413FA82F210B582F80204B3F8002467
:1030B000013292B2A3F80024B3F8002492B2B2F520
:1030C000806F04D30022C3F80428A3F80024D3F8A7
:1030D0000428052A5ED8DFE802F003181F2A3540CD
:1030E000B3F8002492B2032A0ED193F802244E2A98
:1030F00050D193F80324562A4CD193F80424542A2F
:1031000048D10122C3F8042810BDB3F8002492B2BC
:10311000042AF9D10222F5E7B3F8002492B2052A75
:10312000F2D193F80624A3F808280322EAE7B3F8BB
:103130000014B3F8082889B292B205329142E3D163
:103140000422DFE7B3F80014B3F8082889B292B27A
:1031500006329142D8D10522D4E7B3F80014B3F86F
:10316000082889B292B207329142CDD1B3F808282B
:1031700013FA82F292F80824ED2A0BD101220C48AE
:1031800083F80A2800F209440022B3F8001489B237
:10319000914205DC0022C3F80428A3F80024B3E719
:1031A00010F8011B013204F8011BEEE764294020EE
:1031B000662D4020F0B5ADF54B7D7F4D4FF4867206
:1031C000002101A800F05CFD95F80A38002B4DD0D5
:1031D00095F80D38B5F80B288DF80630ADF80420B9
:1031E0009DF804304E2B41D19DF80530562B3DD132
:1031F0009DF80630542B39D195F80F4805F501613B
:1032000095F80E6803A8224602948DF8076000F036
:103210000FFD2B194FF4867201A944A893F810787A
:1032200093F811388DF80B718DF80C3100F000FD1A
:103230004FF4867244A987A800F0FAFC002289A9FD
:103240001346944216D86640734083F04C039F4265
:1032500009D19DF81831452B05D82F2B0FD8052BF8
:1032600040D0092B47D0002385F80A3800200DF5FF
:103270004B7DF0BD11F8010B01324340E1E7303BDB
:10328000152BF0D801A252F823F000BF0F334000F5
:103290002133400033334000673240006732400042
:1032A00067324000673240006732400067324000BA
:1032B00067324000673240006732400067324000AA
:1032C00067324000673240006732400045334000BB
:1032D000573340006F334000813340009333400048
:1032E000A533400000F024FB322000F091FB33486E
:1032F00000F056FDB7E700F033FB45993048073141
:1033000000F0E4FA322000F083FB2E48F0E7611E63
:1033100046A800F026FBC82000F07AFB2A48E7E721
:10332000611E46A800F052FBC82000F071FB274840
:10333000DEE7E11D224800F0C9FAC82000F068FB72
:103340002348D5E7E11D1E4800F0C0FA322000F006
:103350005FFB2048CCE700F0D1FA459918480731C7
:1033600000F0B4FAC82000F053FB1B48C0E7E11D91
:10337000134800F0ABFA322000F04AFB1748B7E7D9
:10338000E11D0F4800F0A2FA322000F041FB144882
:10339000AEE7E11D0A4800F099FA962000F038FBEC
:1033A0001048A5E7E11D064800F090FA642000F0FF
:1033B0002FFB0D489CE700BF64294020EF18410017
:1033C0006F314020011941000D1941001C194100C5
:1033D00029194100361941003E194100491941009F
:1033E000531941005E19410067194100411E431DF8
:1033F000FF2010B511F8012F5040082244B2013AC5
:103400004000002CC0B2B8BF80F01D0012F0FF02D7
:10341000F4D19942EED1C043C0B210BD2DE9F347BB
:10342000552390F8008047784FF04C0A86780C4678
:10343000C57868468DF805308DF800808DF80170EC
:103440008DF802608DF803508DF804A0FFF7CEFFD1
:103450008DF800006846FFF7C9FF81468DF801002E
:1034600068468DF80080FFF7C1FF80468DF80200A6
:1034700068468DF80170FFF7B9FF07468DF8030025
:1034800068468DF80260FFF7B1FF06468DF804002C
:1034900068468DF80350FFF7A9FF05468DF8050033
:1034A00068468DF804A0FFF7A1FF47EA06032B4307
:1034B000034313F0FF0318BFE0704FF0010001BF9A
:1034C00084F8009084F80180A370E3701EBF277019
:1034D0006670A57002B0BDE8F0874378502B05D127
:1034E0008278032A02BF1C4A012111700278062A41
:1034F0000FD1672B0DD18378612B0AD1164BC2787F
:103500005A7002799A704279DA7082791A710222BD
:103510005A710378022B09D14378672B1AD183782B
:10352000622B17D10C4B04225A717047032B11D117
:1035300043786E2B0ED18378FD2B0BD1C378022BF1
:1035400002BF0122044B9A71C3780B2B02BF024BBE
:103550000122DA71704700BFA4454020302307B52F
:103560008DF800300023082168468DF801301423BF
:103570008DF80230AA238DF803308DF804308DF8D1
:1035800005308DF806308DF80730FFF77FF903B06E
:103590005DF804FB294B002230B49A604478502C2B
:1035A00004D18278032A04BF01221A70027802F043
:1035B000F001202924D004D841B1102909D030BC11
:1035C00070473029FBD102229A60F8E730BCFFF740
:1035D00084BF1202C17802F4706222449A81027997
:1035E00002EB012292B2DA8142791A7482795A741A
:1035F0000322A3F81022C2799A7430BCFFF7AEBF41
:10360000B3F81022C41D114610F8015F01321944AD
:1036100092B20D74998989B203398A4208D1A3F80C
:1036200012220022A3F81022022283F81422C6E7F5
:10363000A042E8D1A3F81022C1E700BFA445402072
:10364000032307B58DF8003022238DF803000821ED
:103650008DF80130030A68468DF80230AA238DF8F0
:1036600004308DF805308DF806308DF80730FFF7FF
:103670000DF903B05DF804FB3B4BF7B51A68033155
:10368000013A89B2032A35D8DFE802F0022E366308
:10369000C1F303228DF8011000248DF804001032CC
:1036A0008DF800202E228DF80220020A8DF80320CA
:1036B0002E4A92F8151294608DF8051092F81612A1
:1036C0008DF806100321A2F8161492F817128DF83F
:1036D0000710212119710221196008216846FFF79E
:1036E000D5F8204603B0F0BD204A9268022A01D1E5
:1036F00003221A600024F4E75C7914B1013C5C7188
:10370000F8E705220DF1010703395A711A792F2ABA
:1037100084BF20221A711A79501C8DF8002018716C
:103720001248B0F81624D61DB6B21546013205442B
:1037300092B295F815528A4207F8015B04D1A0F8BD
:10374000162404221A60C8E7B242EED1A0F816246B
:10375000C3E7064A00210124A2F81814A2F816149F
:1037600021221C601A71BCE748604020A44540201B
:103770002DE9F0411D4C4FF40072002104F21A4073
:1037800000F07EFAB4F8122204F1100104F21A409B
:1037900000F04EFA94F81A344E2B23D194F81B34CF
:1037A000562B1FD194F81C34542B1BD194F81E5463
:1037B00004F21A470026DFF83C80073504F21A406D
:1037C0002946FFF7DFF83146013617F8012B40464E
:1037D00000F072FAB3B29D42F5D80023A4F8123279
:1037E000BDE8F081024800F0DBFAF6E7A44540208E
:1037F0009419410079194100022307B58DF8003072
:103800001023082168468DF8013003238DF802301B
:10381000AA238DF803308DF804308DF805308DF82B
:1038200006308DF80730FFF731F803B05DF804FB80
:10383000022307B58DF800302723082168468DF84C
:10384000013061238DF80230AA238DF803308DF802
:1038500004308DF805308DF806308DF80730FFF70D
:1038600015F803B05DF804FB13B5144C04F21A61AB
:10387000601CFFF7D3FD0623082168468DF8003051
:1038800027238DF8013062238DF8023094F81A3620
:103890008DF8033094F81B368DF8043094F81C36FC
:1038A0008DF8053094F81D368DF80630AA238DF872
:1038B0000730FEF7EBFF02B010BD00BFA44540206B
:1038C000014BD3F820067047A445402070B50A4D3F
:1038D0000C4606464FF4007205F21523AA2118463D
:1038E00000F0CEF93146A2B2A5F8184400F0A0F9D4
:1038F0000123C5F8203670BDA445402008B509480D
:1039000000F04EFA084B002208490120C3F8242693
:1039100008609A60C3F820265A711A7083F814223E
:1039200008BD00BFAA194100A445402048604020BE
:1039300008B5084800F034FA07490120074B002277
:1039400008600221C3F824269A60C3F820165A7131
:103950001A7008BDBC19410048604020A4454020B1
:1039600070470829F8B505460E4621D1134C4FF48F
:103970000072AA2104F21527384600F081F9A4F854
:1039800018642B680E48C4F815326B68C4F81932F5
:1039900000F006FA0B4A0121002311600322C4F84B
:1039A0002436A360C4F8202663712370A371F8BD88
:1039B0000548BDE8F84000F07FB900BFA4454020AD
:1039C000D419410048604020E8194100102908B589
:1039D00011D10B4800F0E4F90A4901200A4B0022FA
:1039E00008600421C3F824269A60C3F820165A718F
:1039F0001A70DA7108BD0548BDE8084000F05CB9EE
:103A0000041A410048604020A4454020161A410095
:103A1000014BA3F828067047A445402038B5FEF7AF
:103A2000CFFF054678B3504CFFF7C4FBD4F82036DF
:103A30004BB3D4F824260A2A25D8DFE802F0060C76
:103A400010171D2952616B818B006379F3B9012333
:103A5000C4F8243617E0FFF7CFFE0223F8E72378F7
:103A6000012B10D1002323700323F1E7FFF7E0FEC1
:103A7000012363710423EBE76379022B04D1FFF781
:103A8000F3FE0323637138BD042BFCD10523DFE76C
:103A9000012B08D14FF496716889FFF7EDFD0128DD
:103AA000F1D10623D4E7022B05D14FF60150FFF7E1
:103AB000C7FD0823CCE7032B08D108214FF602509D
:103AC000FFF7DAFD0128DED10923C1E7042BDAD1A3
:103AD00010214FF60B50FFF7CFFD0128D3D10A2359
:103AE000B6E7B4F828361BB1013BA4F82836CAE77C
:103AF0006889FFF7A5FD012384F814320723A7E79F
:103B000094F81432022BBED1FFF732FE0023C4F822
:103B100020369DE794F81432022BB4D1E3894FF696
:103B200001529BB29342F1D1A3899BB2132BEDD1E9
:103B3000A28905200D49033A92B2FFF75FFAE5E743
:103B4000A379012B9FD10A4800F02AF900223020E6
:103B50001146F2E7E379012B95D1064800F020F9F0
:103B6000002231201146E8E7A4454020B44540201A
:103B7000301A41004A1A4100000000000000000015
:103B800001F0FF01102A2BDB10F0070F08D010F80E
:103B9000013B013A8B422DD010F0070F42B3F6D112
:103BA000F0B441EA012141EA014122F007047FF02B
:103BB00000070023F0E80256083C85EA010586EA82
:103BC000010685FA47F5A3FA87F586FA47F6A5FABE
:103BD00087F68EB9EED1F0BC01F0FF0102F00702CA
:103BE00032B110F8013B013A83EA010313B1F8D175
:103BF0000020704701387047002D06BF3546033856
:103C0000073815F0010F07D1013015F4807F02BF8E
:103C1000013015F4C03F0130F0BC0138704700BFDF
:103C2000034613F8012B002AFBD1181A01387047FC
:103C30000A44914200F1FF3300D1704710B511F8EA
:103C4000014B03F8014F9142F9D110BD884210B5E4
:103C500001EB020402D98442234607D8431EA14245
:103C600008D011F8012B03F8012FF8E702440146B0
:103C70008A4200D110BD13F8014D02F8014DF7E75B
:103C800002440346934200D1704703F8011BF9E751
:103C90000EB417B5044618B183690BB900F09CFA4D
:103CA00006AB059AA1680193204600F0E9FF03B036
:103CB000BDE8104003B070470FB40A4B13B51C6841
:103CC00024B1A36913B9204600F086FA05AB049A23
:103CD000A1680193204600F0D3FF02B0BDE8104078
:103CE00004B070475060402070B50E46054618B1CC
:103CF00083690BB900F070FAAB69AC6813B9284658
:103D000000F06AFA234B9C4217D16C68A3891B0709
:103D10001DD52369DBB1013EA36816F8011F013BE5
:103D2000A360E9B9002B2EDA22460A21284600F0CA
:103D300083F8013011D00A2011E0174B9C4201D1C9
:103D4000AC68E3E7154B9C4208BFEC68DEE7214610
:103D5000284600F0CBF80028DDD04FF0FF3070BDD2
:103D6000002B04DAA2699A4206DC0A2904D02368EF
:103D70005A1C22601970CFE72246284600F05CF8F2
:103D80000130C9D1E9E723680A205A1C2260187063
:103D9000E5E700BF841A4100A41A4100641A4100FB
:103DA000024B01461868FFF79FBF00BF50604020DC
:103DB0000CB400B59BB01CAB019105916FF00041B4
:103DC00006910391074953F8042B049101A900932C
:103DD00000F08CFC019B00221A701BB05DF804EB14
:103DE00002B070470802FFFF0EB400B59AB01BABDB
:103DF000019005906FF0004109480691039109492F
:103E000053F8042B04910068009301A900F06EFCA4
:103E1000019B00221A701AB05DF804EB03B07047E2
:103E2000506040200802FFFF034611F8012B03F801
:103E3000012B002AF9D17047F8B50E461446054605
:103E400018B183690BB900F0C7F9214B9C422BD103
:103E50006C68A369A360A3891A072FD523696BB384
:103E600023692068C01A6369F6B28342374604DCCE
:103E70002146284600F02EF930BBA368013BA36021
:103E800023685A1C22601E7063690130834204D08B
:103E9000A389DB0706D50A2E04D12146284600F067
:103EA00019F988B93846F8BD0A4B9C4201D1AC6873
:103EB000CFE7094B9C4208BFEC68CAE72146284679
:103EC00000F014F80028CBD04FF0FF37EAE700BF2E
:103ED000841A4100A41A4100641A4100024B0A46A8
:103EE00001461868FFF7A8BF50604020324B70B5FC
:103EF0001D6806460C4625B1AB6913B9284600F08B
:103F00006BF92E4B9C420FD16C68A389B4F90C203D
:103F100019072CD4DD0611D40923336042F0400385
:103F2000A3814FF0FF303EE0254B9C4201D1AC68AD
:103F3000EBE7244B9C4208BFEC68E6E7580712D534
:103F4000616B41B104F14403994202D0304600F064
:103F500051FA00236363A38923F02403A381002380
:103F6000636023692360A38943F00803A381236965
:103F70004BB9A38903F42073B3F5007F03D0214626
:103F8000304600F0F7F9A089B4F90C2010F00103D5
:103F90000AD00023A36063695B42A361236943B92C
:103FA00010F08000BAD170BD810758BF6369A3606B
:103FB000F4E70020F7E700BF50604020841A41007A
:103FC000A41A4100641A41008A892DE9F04105468E
:103FD00010070C4658D44B68002B05DC0B6C002BEB
:103FE00002DC0020BDE8F081E66A002EF9D0002353
:103FF00012F480522F682B6032D0606DA3895A076B
:1040000005D56368C01A636B0BB1236CC01A00231B
:104010000246E66A216A2846B047431CA38906D1B6
:1040200029681D292CD82A4ACA40D60728D500223B
:104030006260D9042269226004D5421C01D12B6838
:1040400003B96065616B2F600029CAD004F1440395
:10405000994202D0284600F0CDF900206063C1E704
:10406000216A01232846B047411CC7D12B68002B89
:10407000C4D01D2B01D0162B01D12F60B1E7A3892D
:1040800043F04003A381ADE70F69002FA9D0930748
:104090000E6808BF4B690F6018BF0023A6EB070826
:1040A0008B60B8F1000F9CDD216AA66A43463A4650
:1040B0002846B047002806DCA38943F04003A381CB
:1040C0004FF0FF308EE70744A8EB0008E9E700BF98
:1040D0000100402038B50B6905460C46DBB118B12C
:1040E00083690BB900F078F80C4B9C4209D16C68DD
:1040F000B4F90C307BB121462846BDE83840FFF7C3
:1041000063BF074B9C4201D1AC68F1E7054B9C4271
:1041100008BFEC68ECE7002038BD00BF841A4100FE
:10412000A41A4100641A4100014620B9044B054914
:10413000186800F0DAB8044B1868FFF7CBBF00BF6F
:10414000C41A4100D540400050604020002310B503
:104150000446C0E90033C0E904338360818103660B
:10416000C2818361194608225830FFF789FD054B4B
:104170006362054BA362054BE362054B2462236334
:1041800010BD00BFE14E4000074F40003F4F4000D0
:10419000634F4000014900F0A8B800BFD54040007F
:1041A00070B564224D1E55430E4605F1700100F0B6
:1041B0006DF9044640B10021C0E900160C30A06042
:1041C00005F16402FFF75CFD204670BD014B1868E5
:1041D000FFF7E0BFC41A4100836910B5044633BB42
:1041E000C0E912330365124B124A1B68826298427F
:1041F00004BF0123836100F01FF86060204600F0D7
:104200001BF8A060204600F017F80022E0600421AF
:104210006068FFF79BFFA06801220921FFF796FF66
:10422000E06802221221FFF791FF0123A36110BD74
:10423000C41A410095414000F8B51B4B1E68B36994
:10424000074613B93046FFF7C7FF4836D6E90134B1
:10425000013B03D53368DBB13668F7E7B4F90C509E
:10426000A5B9124B2566C4E90055C4E90335C4E974
:104270000555A5600822294604F15800FFF700FD06
:10428000C4E90D55C4E912552046F8BD6434DFE792
:1042900004213846FFF784FF044630600028DBD154
:1042A0000C233B60F0E700BFC41A41000100FFFF90
:1042B0002DE9F0410F4600F148040026D4E90185BC
:1042C000B8F1010805D52468002CF7D13046BDE8C7
:1042D000F081AB89012B06D9B5F90E30013302D03C
:1042E0002846B84706436435EAE72DE9F843064611
:1042F000884600F148040027D4E90195B9F1010985
:1043000005D52468002CF7D13846BDE8F883AB8981
:10431000012B07D9B5F90E30013303D029463046B9
:10432000C04707436435E9E770B50E46B1F90E1092
:10433000002996B014461D4608DAB6F90C30002262
:104340002A601A0610D44FF480630EE06A4600F02B
:104350002FFE0028F1DB019A02F47042A2F500530F
:104360005A425A412A60EEE740230020236016B0EB
:1043700070BD00008B8973B59D0706460C4607D5B6
:1043800004F14703236023610123636102B070BD20
:1043900001AB6A46FFF7C8FF00990546304600F0BA
:1043A00075F848B9B4F90C309A05EFD423F003033B
:1043B00043F00203A381E3E70D4BB362A3892060BE
:1043C00043F08003A381009B6361019B20615BB18B
:1043D000B4F90E10304600F047FF28B1A38923F04E
:1043E000030343F00103A381A0890543A581CDE721
:1043F0009541400037B5002944D051F8043C019064
:10440000002BA1F10404B8BFE41800F04FFF1E4ACE
:104410000198136833B96360146003B0BDE830409D
:1044200000F045BFA34208D9256861198B4201BF3E
:1044300019685B6849192160EDE71A465B680BB1A2
:10444000A342FAD911685518A5420BD1246821441A
:104450005418A3421160E0D11C685B68536021448A
:104460001160DAE702D90C230360D6E725686119E9
:104470008B4204BF19685B68636004BF49192160FF
:104480005460CAE703B030BDEC4D4020F8B5CD1CF8
:1044900025F0030508350C2D38BF0C25002D0646E8
:1044A00001DBA94203D90C2333600020F8BD00F0E2
:1044B000FDFE21490A6814469CB9204F3B6823B988
:1044C0002146304600F0FCFC38602946304600F0BA
:1044D000F7FC431C23D10C233360304600F0E7FE89
:1044E000E3E723685B1B17D40B2B03D923601C4421
:1044F000256004E06368A2420CBF0B605360304645
:1045000000F0D5FE04F10B00231D20F00700C21AB5
:10451000CCD01B1AA350C9E722466468CCE7C41C60
:1045200024F00304A042E3D0211A304600F0C8FC76
:104530000130DDD1CFE700BFEC4D4020F04D4020F1
:104540002DE9F0478E689E4282460C4690461F46F3
:1045500038D88A8912F4906F32D025680969A5EBA2
:104560000109656905EB450505EBD57501334B443C
:104570006D109D4238BF1D46530531D52946FFF7C2
:1045800085FF064650B90C23CAF80030A38943F0D2
:104590004003A3814FF0FF30BDE8F08721694A4610
:1045A000FFF746FBA38923F4906343F08003A381C4
:1045B000266165614E44A5EB09052660A5603E466F
:1045C000BE4200D93E46206832464146FFF73EFBD8
:1045D000A3689B1BA3602368334423600020DBE7B0
:1045E0002A4600F065FE06460028E1D121695046C2
:1045F000FFF700FFC7E793682DE9F74F80460C46A9
:104600001746002B61D00023D2F800A001939B46EF
:10461000BBF1000F2BD0A668B34542D3A28912F498
:10462000906F3ED0206821696569A0EB010905EB18
:10463000450505EBD57509F101006D10584485421B
:1046400038BF0546530545D529464046FFF71EFFAE
:104650000646A0B90C23C8F80030A38943F04003F4
:10466000A3810023C7E901334FF0FF302FE0DAF8D0
:104670000030DAF804B001930AF1080AC8E74A46A4
:104680002169FFF7D5FAA28922F4906242F08002F4
:10469000A281266165614E44A5EB09052660A560EF
:1046A0005E465E4528BF5E46324601992068FFF7A8
:1046B000CDFAA268921BA260226832442260BA68D6
:1046C000A2EB0B03BB60002BD1D10020786003B0BC
:1046D000BDE8F08F2A46404600F0EAFD0646002875
:1046E000D7D121694046FFF785FEB3E72DE9F04FAA
:1046F00098468B891B069DB007460D4614460ED57D
:104700000B6963B94021FFF7C1FE2860286120B919
:104710000C233B604FF0FF30D1E040236B6100235E
:10472000099320238DF82930CDF80C803023DFF851
:10473000A8818DF82A304FF0010923469A4613F8D4
:10474000012B0AB1252AF9D1BAEB040B0BD05B4639
:10475000224629463846FFF7F3FE013000F0AA80D2
:10476000099A5A4409929AF80030002B00F0A2806E
:1047700000234FF0FF32CDE905230AF1010A04932B
:1047800007938DF853301A935446052214F8011BF1
:104790005148FFF7F5F9049AD8B9D00644BF202351
:1047A0008DF85330110744BF2B238DF853309AF8FE
:1047B00000302A2B15D0079A544600204FF00A0CDF
:1047C000214611F8013B303B092B4ED9B0B107927D
:1047D00014E0A0EB080309FA03F313430493A24681
:1047E000D2E7039B191D1B680391002BBBBF5B42E3
:1047F00042F0020207930793B8BF049223782E2B4E
:104800000CD163782A2B35D1039B1A1D1B680392A8
:10481000002BB8BF4FF0FF3302340593DFF8C8A078
:10482000217803225046FFF7ABF940B14023A0EBBB
:104830000A0003FA00F0049B03430134049314F8C4
:10484000011B26488DF828100622FFF799F9002849
:1048500038D0234B1BBB039B073323F007030833DC
:104860000393099B3344099367E70CFB02320C4620
:104870000120A5E700230134059319464FF00A0CE7
:10488000204610F8012B303A092A03D9002BC5D055
:104890000591C3E70CFB012104460123F0E703ABBC
:1048A00000932A460F4B04A93846AFF30080421C00
:1048B0000646D6D1AB895B063FF52CAF09981DB0F3
:1048C000BDE8F08F03AB00932A46064B04A9384697
:1048D00000F07AF8EBE700BFC81A4100D21A410095
:1048E0000000000041454000CE1A41002DE9F0478C
:1048F000164699468A680B69DDF820809342B8BF56
:104900001346336091F8432007460C460AB1013341
:1049100033602368990642BF3368023333602568E9
:1049200015F0060506D104F1190AE36832689B1AEE
:10493000AB4226DC94F84320131E226818BF0123E3
:1049400092062BD404F1430249463846C047013051
:104950001ED02368E568326803F00603042B08BF05
:10496000AD1AA36822690CBF25EAE57500259342BC
:10497000C4BF9B1AED1800261A34B5421AD1002084
:1049800008E00123524649463846C047013003D16A
:104990004FF0FF30BDE8F0870135C6E7E1185A1C3B
:1049A000302081F84300224494F8451082F84310E7
:1049B0000233C7E70123224649463846C047013043
:1049C000E6D00136D9E700002DE9FF470F7E0C9DA8
:1049D000782F914680460C469A4601F1430207D84B
:1049E000622F0AD8002F00F0D880582F00F0A38043
:1049F00004F1420584F842703AE0A7F16303152BF5
:104A0000F6D801A151F823F0614A4000754A4000F0
:104A1000F1494000F1494000F1494000F1494000AE
:104A2000754A4000F1494000F1494000F149400019
:104A3000F1494000814B4000A54A4000634B4000D3
:104A4000F1494000F1494000A34B4000F1494000CA
:104A5000A54A4000F1494000F14940006B4B40003D
:104A60002B681A1D1B682A6004F1420584F8423045
:104A70000123A3E020682968060601F104030AD592
:104A80000E682B60002E03DA2D23764284F8433023
:104A90005E480A2319E00E682B6010F0400F18BF23
:104AA00036B2EFE72B682068191D2960010601D591
:104AB0001E6802E04606FBD51E8854486F2F0CBFC7
:104AC00008230A23002184F843106568A560002D9F
:104AD000A2BF216821F0040121600EB9002D4DD044
:104AE0001546B6FBF3F103FB1167C75D05F8017DC1
:104AF0003746BB420E46F4D9082B0BD12368DE079C
:104B000008D5236961689942DEBF302305F8013C6E
:104B100005F1FF35521B2261CDF800A04B4603AAD8
:104B200021464046FFF7E2FE01304CD14FF0FF3006
:104B300004B0BDE8F087354881F8457029682368DE
:104B400051F8046B29601D0614D5DF0744BF43F0FC
:104B5000200323601EB9236823F020032360102361
:104B6000B0E7236843F0200323607823284884F8C3
:104B70004530E3E7590648BFB6B2E6E71546BBE75E
:104B80002B6826686169181D286035061B6801D5E9
:104B9000196002E07006FBD51980002323611546D9
:104BA000BAE72B681A1D2A601D6862680021284632
:104BB000FEF7E6FF08B1401B6060636823610023D5
:104BC00084F84330A8E723692A4649464046D0473F
:104BD0000130ABD023689B0713D4E068039B984255
:104BE000B8BF1846A4E70123324649464046D0479D
:104BF00001309BD00135E36803995B1AAB42F2DCCC
:104C0000EBE7002504F11906F5E700BFD91A4100CA
:104C1000EA1A41009368013B002B10B4936008DA54
:104C20009469A34201DB0A2903D15DF8044BFFF725
:104C300003B91368581C1060197008465DF8044BDE
:104C40007047F8B506460F461446D518AC4201D158
:104C5000002007E014F8011B3A463046FFF7DAFF60
:104C6000431CF3D1F8BD38B593681446002513B939
:104C70005360184638BD00F0ADF9C4E90155F9E7B5
:104C80002DE9F04F0D469DB014469846064618B1E2
:104C900083690BB9FFF7A0FA7C4B9D4261D175681F
:104CA000AB891B0767D52B69002B64D000230993C0
:104CB00020238DF82930CDF80C803023DFF8D08107
:104CC0008DF82A304FF0010923469A4613F8012B3C
:104CD0000AB1252AF9D1BAEB040B0BD05B46224668
:104CE00029463046FFF7ADFF013000F0C080099A39
:104CF0005A4409929AF80030002B00F0B880002343
:104D00004FF0FF32CDE905230AF1010A049307931E
:104D10008DF853301A935446052214F8011B5C4851
:104D2000FEF72EFF049A002830D1D00644BF20237E
:104D30008DF85330110744BF2B238DF853309AF868
:104D400000302A2B2AD0079A544600204FF00A0C34
:104D5000214611F8013B303B092B63D958B3079228
:104D600029E04C4B9D4201D1B56899E74A4B9D42E1
:104D700008BFF56894E729463046FFF7B7F80028E2
:104D800094D04FF0FF301DB0BDE8F08FA0EB0803CA
:104D900009FA03F313430493A246BCE7039B191DCE
:104DA0001B680391002BBBBF5B4242F002020793DA
:104DB0000793B8BF049223782E2B0CD163782A2B4B
:104DC00035D1039B1A1D1B680392002BB8BF4FF00F
:104DD000FF3302340593DFF8D0A021780322504638
:104DE000FEF7CEFE40B14023A0EB0A0003FA00F02C
:104DF000049B03430134049314F8011B27488DF8E6
:104E000028100622FEF7BCFE002835D0244B1BBB21
:104E1000039B073323F0070308330393099B3B44A9
:104E2000099351E70CFB02320C46012090E7002366
:104E30000134059319464FF00A0C204610F8012B57
:104E4000303A092A03D9002BC5D00591C3E70CFBE2
:104E5000012104460123F0E703AB00932A46114BDE
:104E600004A93046AFF30080421C0746D6D1AB8977
:104E70005B0686D4099886E703AB00932A46094B64
:104E800004A93046FFF7A0FDEEE700BF841A4100F9
:104E9000C81A4100A41A4100641A4100D21A410004
:104EA00000000000434C4000CE1A410013460A4661
:104EB000014602480068FFF7E3BE00BF5060402093
:104EC00038B5064D0023044608462B6000F09AFBD7
:104ED000431C02D12B6803B1236038BDF44D402040
:104EE00010B50C46B1F90E1000F008FA0028ABBF5F
:104EF000636DA3891B1823F48053ACBF6365A38142
:104F000010BD002070472DE9F0411F468B89DB055D
:104F100005460C46164605D5B1F90E1002230022AF
:104F200000F0B2F9A389B4F90E1023F48053A381E1
:104F300032463B462846BDE8F04100F017B810B5B0
:104F40000C46B1F90E1000F09FF9431CA38915BF60
:104F5000606523F4805343F48053A38118BFA38179
:104F600010BDB1F90E1000F013B8000038B5074DB0
:104F700004460846114600222A601A46FEF70BF83E
:104F8000431C02D12B6803B1236038BDF44D40208F
:104F900038B5064D0023044608462B6000F00AFB96
:104FA000431C02D12B6803B1236038BDF44D40206F
:104FB00038B5074D00230446084611462B6000F023
:104FC00066FB431C02D12B6803B1236038BD00BFD0
:104FD000F44D402093682DE9F74F06460C46904665
:104FE0001BB9002003B0BDE8F08F8B89180750D59E
:104FF0000B69002B4DD0A389D8F8007013F002097B
:105000006CD113F0010300F09C804846CA46CB46A1
:10501000BBF1000F00F0038150B95A460A215046F7
:10502000FEF7AEFD002800F0FF800130A0EB0A097A
:10503000206821696369D9454A4628BF5A46884293
:1050400040F2F580A5681D44AA4240F3F080514625
:105050002A46FEF7FBFD23682B4423602146304699
:10506000FFF738F8002867D1B9EB050940F0F78061
:1050700021463046FFF72EF800285DD1D8F80820E9
:10508000AA44ABEB050B551BC8F80850002DBFD147
:10509000A7E721463046FEF729FF0028ABD04FF0A6
:1050A000FF309FE7D7E900B90837B9F1000FF9D011
:1050B000D1454B46216AA56A28BF53465A46304619
:1050C000A847002838DDD8F808308344A9EB000948
:1050D000181AC8F808000028E7D182E74FF0000B43
:1050E000DFF880A1D946E0E7D7E9009A0837BAF19E
:1050F000000FF9D0A389A2682068990563D55245AD
:1051000036D813F4906F33D021696569A0EB010B99
:1051100005EB450505EBD5750BF101026D10524409
:10512000954238BF15465B053DD529463046FFF709
:10513000ADF948B90C233360A38943F04003A38140
:10514000ADE799469A46D2E75A4621690190FEF7A3
:105150006FFDA289019B22F4906242F08002A2813D
:10516000236165615B44A5EB0B0523605246A56096
:10517000524528BF5246206801924946FEF766FD17
:10518000A368019A9B1AA36023681A4455462260BB
:10519000D8F80800A944AAEB050A451BC8F808502E
:1051A000002DA4D11DE72A46304600F081F80346C1
:1051B0000028D5D121693046FFF71CF9A38923F0D7
:1051C0008003A381B6E72369834202D36169514515
:1051D00015D9524528BF524649461546FEF736FDB9
:1051E000A36822685B1B2A44A3602260002BCFD1F6
:1051F00021463046FEF76EFF0028C9D09CE76FF0CD
:1052000000439A4538BF5346A56A93FBF1F34A46DB
:105210004B433046216AA847051EB9DC8CE7D7E925
:1052200000AB00200837F3E60BF1010900E79342D9
:1052300008DCA56A216A52463046A847051E3FF79A
:1052400013AF79E751460192FEF700FD019AA3687A
:105250009B1AA360236813442360154604E70120CA
:105260000CE700BF00FCFF7F38B5064D0023044665
:1052700008462B6000F0CCFB431C02D12B6803B125
:10528000236038BDF44D402038B5074D044608462C
:10529000114600222A601A4600F049F9431C02D147
:1052A0002B6803B1236038BDF44D40207047704730
:1052B000F8B5074614460E4621B9BDE8F840114638
:1052C000FFF7E4B822B9FFF795F825462846F8BD60
:1052D00000F090F8A0420FD221463846FFF7D6F8EA
:1052E00005460028F2D031462246FEF7A1FC3146A1
:1052F0003846FFF77FF8E9E73546E7E738B5074D69
:1053000004460846114600222A601A4600F0B7F803
:10531000431C02D12B6803B1236038BDF44D4020FB
:1053200038B50C460968054609B1FFF7F9FF214673
:105330002846BDE83840FFF75DB800002C4B1B68DD
:10534000834270B5044651D0436A43B1DB68002BF9
:105350004AD1636A196811B12046FFF74BF86169B9
:1053600011B12046FFF746F8616A11B12046FFF7F8
:1053700041F8A16B11B12046FFF73CF8E16B11B188
:105380002046FFF737F8216C11B12046FFF732F8BD
:10539000E16D11B12046FFF72DF8A16D11B1204646
:1053A000FFF728F8616B11B12046FFF723F8A369D6
:1053B000E3B1A36A20469847A16CB9B12046BDE885
:1053C0007040FFF7ADBF495941B90435636A802D7C
:1053D000D968F8D12046FFF70DF8BAE70E682046E5
:1053E000FFF708F83146EFE70025EFE770BD00BF93
:1053F0005060402051F8043C181F002BBCBF0B58D4
:10540000C01870470A4B10B50446186818B1836974
:105410000BB9FEF7E1FE132C07D8064850F83420EC
:10542000013202D000EBC40010BD0020FCE700BF39
:1054300050604020084E4020F8B5044600F03EFB86
:1054400013260546002730463946ABBE06462E6079
:105450002046F8BD431C01D1FFF7EEBF704730B5C1
:1054600085B0CDE901010392062401AD204629460D
:10547000ABBE04462046FFF7EDFF05B030BD37B5A3
:1054800015460191FFF7BEFF0199044638B900F0B7
:1054900015FB092303604FF0FF3003B030BD0068F7
:1054A0002A46FFF7DCFF431CF7D063682A1A13442F
:1054B00063601046F1E7F7B50C461646FFF7A2FF0A
:1054C000054640B900F0FAFA092303604FF0FF34B3
:1054D000204603B0F0BD022E03D900F0EFFA1623E8
:1054E000F3E7012E12D14368E418F6D42B680A269C
:1054F000CDE900346F4630463946ABBE06463046ED
:10550000FFF7A8FF0028E1DB6C60E1E7022EEDD198
:10551000036800930C266F4630463946ABBE0646FC
:105520003046FFF797FF431CD0D00444DEE7FFF777
:10553000C2BF30B585B0CDE901010392052401ADAC
:1055400020462946ABBE04462046FFF783FF05B040
:1055500030BD37B515460191FFF754FF0199044658
:1055600030B900F0ABFA092303604FF0FF3012E0CE
:1055700000682A46FFF7DDFF0028F6DB62682B1A79
:105580001A44A842626005D1002003B0BDE8304053
:10559000FFF752BF184603B030BD37B50224019063
:1055A00001AD20462946ABBE04462046FFF752FF18
:1055B00003B030BD38B50546FFF724FF044630B9C7
:1055C00000F07CFA092303604FF0FF3038BD013D45
:1055D000012D09D8094B9A681B699A4204D14FF0F2
:1055E000FF3303600020F1E72068FFF7D6FF0028B3
:1055F000ECD14FF0FF332360E8E700BF084E4020B6
:10560000012070470D4A116810B5034609B90C49CD
:1056100011601068694603448B4206D809490A4C58
:105620000968A14208D08B4206D900F047FA0C2342
:1056300003604FF0FF3010BD1360FCE7F84D4020D1
:10564000C8604020B4604020ADDEFECA70B50C4694
:10565000FFF7D8FE054630B900F030FA09230360A1
:105660004FF0FF3070BD636843F4005363604FF444
:105670008063A3640C2630462946ABBE0546284607
:10568000FFF7E8FE431C1CBF20610020EAE70B4641
:1056900010B50021044658221846FEF7F1FA0146DB
:1056A0002046BDE81040FFF7D1BF38B50D4604468F
:1056B000582200212846FEF7E3FA2046002100F098
:1056C00011F8431C04460BD06B6843F401436B6034
:1056D0002946FFF7BBFF05462046FFF76BFF2C4628
:1056E000204638BD2DE9F043DFF8A88097B0074683
:1056F0000E46002558F83540611C37D00135142D71
:10570000F8D100F0DBF9182303604FF0FF343DE0DF
:10571000C6F3004440F20163B20748BF44F00204FC
:105720001E4218BF44F00404330748BF24F00404A9
:10573000384648BF44F008040097FEF771FACDE9F7
:105740000140012420464946ABBE0446002C08DB3C
:1057500048F8354008EBC5080023C8F804302C464B
:1057600014E02046FFF768FE04460FE006F42063CD
:10577000B3F5206FE946CBD149463846FFF795FF90
:105780000130C5D000F09AF911230360204617B00C
:10579000BDE8F083084E40200EB400B50199FFF734
:1057A000A1FF5DF804EB03B0704700002DE9F7435B
:1057B00006460F462A4800211546FFF793FF2A4662
:1057C000044600213046FEF75BFA631C16D02046E3
:1057D000FFF718FE4FF00C09804648464146ABBE25
:1057E00080464046FFF736FE032802DDC31EAB426B
:1057F00008DC2046FFF7DEFE4FF0FF34204603B002
:10580000BDE8F08304220DEB02012046FFF737FECE
:105810000328EEDD9DF80430532BEAD19DF80530C6
:10582000482BE6D19DF80630462BE2D19DF8073093
:10583000422BDED1012239462046FFF73CFE0028EC
:10584000D7DB2A4631462046FFF719FE054620469B
:10585000FFF7B0FE2846FFF7FDFD0446CEE700BF88
:10586000FB1A410037B50A4D0A4C0021012201A85C
:1058700029602260FFF79AFF002807DD9DF80430B9
:1058800003F0010203F002032A60236003B030BD7D
:10589000B8604020BC60402010B5044C2368002B49
:1058A00001DAFFF7DFFF206810BD00BFB8604020BD
:1058B00010B5044C2368002B01DAFFF7D3FF2068F2
:1058C00010BD00BFBC6040202DE9F04F85B0DFF86F
:1058D000B090CDF8049003230024039301AF029409
:1058E000012528463946ABBE0546DFF89880234699
:1058F000204CC8F800504FF0FF3244F833200133F9
:10590000142BFAD1FFF7D4FF1B4DD0B14FF0030A8F
:105910000423CDF804900126CDF80CA00293304664
:105920003946ABBE8346154BCDF80490C3F800B0A2
:105930000823CDF80CA0029330463946ABBE06468C
:105940002E602B68013302BF0C4B1B682B600026B6
:10595000D8F8003023606660FFF7AAFF30B1074B2C
:105960001B68C4E902362B68C4E9043605B0BDE8FB
:10597000F08F00BF084E4020FC4D4020044E4020D8
:10598000111B4100004E402008B500F097F8582345
:1059900003604FF0FF3008BD37B50090FEF740F9C7
:1059A0000E2401906D4620462946ABBE0446631C7A
:1059B00004D12046FFF740FD03B030BD0020FBE7D7
:1059C000F0B50D46044648B1002711263046394649
:1059D000ABBE0646F317C4E90063A76015B1002308
:1059E000C5E900330020F0BD30B510240025204665
:1059F0002946ABBE0446204630BD10B50446FFF72D
:105A0000F3FF24B10023C4E901332060E36010BD3B
:105A100070B5FFF7F7FC0925044620B900F04EF8F1
:105A20000560204670BD28462146ABBE0446012CC9
:105A3000F7D000F043F800240546132630462146EF
:105A4000ABBE06462E60ECE737B5C8B10090FEF756
:105A5000E7F8122401906D4620462946ABBE044665
:105A60002046FFF7F7FCFF28034602D903B030BDFC
:105A700040000028FAD0C0F307229A42F6D0F7E798
:105A80000120F3E730B585B00C460090FEF7C8F86A
:105A9000CDE901042046FEF7C3F80F2403906D46BC
:105AA00020462946ABBE04462046FFF7D3FC00380B
:105AB00018BF0120404205B030BD0000014B1868FE
:105AC000704700BF50604020FEE7FEE7FEE7FEE7BC
:105AD000FEE7FEE7FEE7FEE7FEE7FEE74FF0E02227
:105AE000D2F80C3D23F4E0631843C2F80C0D704764
:105AF0004309012200F01F00403302FA00F04FF08A
:105B0000E02242F8230070474309012200F01F0001
:105B1000603302FA00F04FF0E02242F823007047B1
:105B2000090100F1E020C9B280F8001470470000BC
:105B30002DE9F8431F4B00251E68B54207D11E4CC6
:105B400000262768B046BE4221D1BDE8F883D3E9DC
:105B50000101DA680024521A02F0030C9208A242F2
:105B600009D101EB820100EB82020020844508D8B4
:105B700001350C33E1E751F8247040F8247001340A
:105B8000EDE711F8014B013002F8014BEEE7D4E9E3
:105B9000013500210136ED1A1846083425F00302BC
:105BA0004FEA9509FEF76CF8AA0718BF40F829805C
:105BB000C9E700BF603B4100AC3B4100144B0C22E5
:105BC000F0B5144D1E6802FB0533B54200D3F0BD9D
:105BD000D3E90101DA680024521A02F0030C92089A
:105BE000A24209D101EB820100EB82020020844530
:105BF00008D801350C33E8E751F8247040F82470D8
:105C00000134EDE711F8014B013002F8014BEEE7EA
:105C1000603B4100030000007047FEE79F4B0021FE
:105C20005B6813F0030F0CBF01200020F0B54B00A0
:105C3000013103F18043F02903F51813B3F88028EC
:105C400092B242EA0002A3F88028F0D1944B0022DD
:105C500094491A6019649449944859609449954C40
:105C600059649549996001F5800198649348D8601A
:105C70009348D8644FF0D8501861924818659248FC
:105C800058619248586592489861924840EA4400A9
:105C9000914C98659148D861914840EA4404DC658C
:105CA000904C1C62904C40EA440018664FF08040D3
:105CB00058628E4858668E4898624FF0CE409A6679
:105CC000D8628C48D8664FF0D04018638A4818676D
:105CD0004FF0604058638948586799634FF0884196
:105CE0009A67D963DA67BFF34F8FBFF36F8F4FF0B7
:105CF000E022D2F8141D8F0303D4D2F8142DD6035A
:105D00006AD54FF0E0210022C1F8842DBFF34F8FF8
:105D1000D1F8802D43F6E075C2F3C904C2F34E32C8
:105D2000520102EA0507204647EA8076C1F8746FFF
:105D3000BFF34F8F0138F7D2203A12F1200FF0D184
:105D4000D1F8842D42F00102C1F8842D0022C1F85F
:105D5000502FBFF34F8FBFF36F8FC1F8842DBFF368
:105D60004F8FD1F8802D43F6E0754FF0E021C2F35C
:105D7000C904C2F34E32520102EA0507204647EA3F
:105D80008076C1F8746FBFF34F8F0138F7D2203A95
:105D900012F1200FF0D1D1F8842D42F00102C1F8A8
:105DA000842D0022C1F8502FBFF34F8FBFF36F8FA8
:105DB000D1F8142D22F40032C1F8142DBFF34F8F07
:105DC000BFF36F8FD1F8142D22F48032C1F8142D57
:105DD000BFF34F8FBFF36F8F00224FF0E0201146CB
:105DE00003EB8204256CED070AD5C0F8981D01313C
:105DF00053F82250C9B2C0F89C5D246CC0F8A04D85
:105E00000132102AECD14FF0E023D3F8942D42F068
:105E10000302C3F8942DBFF34F8FBFF36F8F00229F
:105E2000C3F8842DBFF34F8FD3F8802D43F6E07471
:105E3000C2F3C900C2F34E32520102EA040601461F
:105E400046EA8175C3F8605FBFF34F8F0139F7D21F
:105E5000203A12F1200FF0D1BFF34F8FD3F8142D59
:105E600042F48032C3F8142DBFF34F8FBFF36F8F0E
:105E7000BFF34F8FBFF36F8F0022C3F8502FBFF3D4
:105E80004F8FBFF36F8FD3F8142D42F40032C3F855
:105E9000142DBFF34F8FBFF36F8FF0BD000026406E
:105EA000000040203F0004100000000029000B0704
:105EB0001F0008030E00000000004000000000105A
:105EC00023000B1619000B16000000202100080308
:105ED0000000402001000B030E0000000080402065
:105EE00001000C13000041200E0000002DC004131F
:105EF000000060401300041335000B032700041357
:105F00004FF0E022D2F8883D43F47003C2F8883D98
:105F1000BFF34F8FBFF36F8F704700BF70472DE9FE
:105F2000F047B64D01210446286001F017FC2B68AC
:105F3000002B40F03A81E67AB14FDFF8FC82DFF8BF
:105F4000FC92002E40F03881A67BAE4FDFF8F08245
:105F5000DFF8E892002E40F03F81A67AAA4FDFF8E2
:105F6000E482DFF8D892002E40F07E81667AA74F57
:105F7000DFF8D482DFF8C492002E40F086813746E5
:105F8000DFF8A082DFF8C492DFF8B0A2237ABB4228
:105F900000F28C810027DFF87482DFF8AC92DFF822
:105FA0009CA2637ABB4200F29381286800250221FB
:105FB00001F0D4FBE27BEBB29A4200F29B81944B5E
:105FC0001D78002D38D10122924F294628461A709B
:105FD0007B689847BB6856208A4F98478E4B284667
:105FE0001B6898478D4B28461B689847874B284667
:105FF0001B6898477B6828469847BB68884F2846A7
:10600000984728463B68984729467B68562098471A
:10601000844B7D4F28461B6898477B6828469847E5
:10602000BB6828469847764B28465B6898477E4B66
:10603000294628461B68984701237C49E27C9A42FE
:1060400000F262810025784FDFF80482DFF8EC91DE
:10605000637CAB4200F25F810025704FDFF8F48172
:10606000DFF8D891637BAB4200F2668100256A4F6E
:10607000DFF8E481DFF8C491237BAB4200F26C814E
:106080000025664FDFF8CC81DFF8B091637BAB422F
:1060900000F2728100255C4FDFF8A881DFF89C9147
:1060A000A37AAB4200F2798100255A4FDFF8848150
:1060B000DFF88891A37CAB4200F281810025534F29
:1060C000DFF88481DFF87491637AAB4200F2898152
:1060D00000254D4FDFF86C81DFF86091A37AAB4269
:1060E00000F291810025474FDFF85481DFF84C9191
:1060F000A37BAB4200F29981DFF8608101234C4F12
:10610000002556210420BB70D8F800303D707D700A
:10611000FD70984701F04EFBD8F80030562105205D
:106120009847D8F80030562106209847DFF8D090DD
:1061300001F03EFBDFF800A1D8F800305621DFF86F
:10614000208107209847E37AAB4200F280813D78B6
:10615000002D40F0B681324FDFF80881DFF8DC9087
:10616000237CAB4200F28D812A4D324FDFF8CC8088
:10617000A37CB34200F2958120460421BDE8F0479C
:1061800001F0ECBA1422E06B7243013683581044DC
:1061900003EBC3034B445B7818F803301B01FB5837
:1061A0009847A37CB342EDD8C5E60026194FDFF827
:1061B0008480DFF88890F4E7206A013E50F836309A
:1061C00000EBC60003EBC3034B445B7818F80330C5
:1061D00057F833309847B4E6013EE06A0C223301A9
:1061E000C35800EB061003EBC3034B445B7818F86D
:1061F00003305343FB589847ACE600BF104F402094
:10620000F83A41005C3A4100C83A4100343A410052
:10621000144F4020A83A4100143A4100243A41006A
:10622000683A4100783A4100F03A4100B84E4020C7
:10623000B44E4020B8394100CA394100B23641005D
:10624000DC394100D3394100F7394100EE394100D2
:10625000C1394100003A4100093A4100286040201C
:1062600090344100E5394100013E2822E0691421C3
:1062700072438358104403EBC3034B445B7818F814
:1062800003304B43FB5898476DE61421013EA0694B
:1062900001FB06F28358104403EBC3034B445B78C5
:1062A00018F803304B43FB58984765E60C216069AA
:1062B00001FB07F201378358104403EBC303534437
:1062C0005B7819F803304B4358F8033098475DE684
:1062D0001421A06901FB07F201378358104403EB36
:1062E000C30353445B7819F8033001FB03835B68F5
:1062F000984756E6226B013502EBC30152F8330092
:10630000496800F0BEFB55E6226C52F833208B54EE
:106310000133DBB292E61422A06B29466A430135B1
:106320008358104403EBC3034B445B7818F80330E5
:1063300057F8233098478BE60C22A06A6A43013550
:106340008358104403EBC3034B445B7818F80330C5
:1063500057F83330984785E60C22606A6A43013566
:106360008358104403EBC3034B445B7818F80330A5
:1063700057F8233098477FE60C22A06A6A4301351C
:106380008358104403EBC3034B445B7818F8033085
:1063900007EBC3035B68984778E62822E06914217D
:1063A0006A4301358358104403EBC3034B445B78C5
:1063B00018F8033001FB03735B68984770E61422FA
:1063C000E06B29466A4301358358104403EBC3034D
:1063D0004B445B7818F8033007EB03135B6898476E
:1063E00068E61421A06901FB05F2013583581044C9
:1063F00003EBC3034B445B7818F8033001FB0373D2
:106400009B68984760E62822E06914216A430135B9
:106410008358104403EBC3034B445B7818F80330F4
:1064200001FB0373DB68984758E6E06A2B010C22F6
:10643000C35800EB0510013503EBC3034B445B78F5
:1064400018F8033002FB03735B68984750E6226A32
:1064500002EBC500436858F82330032B0ED052F8E6
:106460003530194A03EBC30313445B781AF8033041
:1064700009EBC3035B689847013564E601233B7071
:10648000FAE7606B50F8353000EBC500013503EBDF
:10649000C3034B445B7818F8033057F83330984700
:1064A0005EE61422E06B724301368358104403EB1E
:1064B000C30343445B78FB5C05EB0313DB6898473D
:1064C00056E6BDE8F08700BFB23641002DE9F0473F
:1064D0001F4F002502241F4EDFF88880B378AB429F
:1064E0001CD864BB1C4F2546DFF87C80DFF87C900D
:1064F000DFF868A0F3789D4221D257F8040B0C22F4
:1065000000EBC00353445B7819F8033002FB0383AC
:106510009B689847012811D00135EBE757F8040B29
:106520000E4B00EBC00213440D4A5B78D35C14227F
:1065300002FB03839B689847012803D1012420466E
:10654000BDE8F087022805F1010508BF0024C5E772
:106550008C344100B44E402088344100B2364100B2
:10656000D3394100C83A41005C3A4100DC3941006E
:106570002DE9F0412F4D2B682BBBBDE8F0811B6A44
:1065800003EBC400426856F82220032A0CD153F8CA
:106590003430294A03EBC30313445B7818F8033003
:1065A00007EBC3035B68984701342B68DA7A94429F
:1065B000E5D3224B1B78002BDFD00024204E214F47
:1065C000DFF8748013E000241F4E204FDFF888802E
:1065D000EBE7586B50F8343000EBC400013403EBA8
:1065E000C30343445B78FB5C56F8333098472B6811
:1065F0001A7C9442EDD30024154E164FDFF83880F4
:106600002868837C9C4204D30421BDE8F04101F05A
:10661000A5B81422C06B624301348358104403EBC5
:10662000C30343445B78FB5C06EB0313DB689847CA
:10663000E6E700BF104F4020B2364100B44E402084
:10664000683A4100E539410090344100F83A410090
:10665000A83A4100B8394100CA39410010B5FFF7E6
:106660005EFC064B1C782CB1FFF730FF044618B9CE
:10667000FFF77EFF204610BD0124FBE7B44E40200B
:10668000054A00EBC0031344044A5B78D25C044B18
:1066900003EB02139B681847B2364100B83941003A
:1066A000A83A4100014B1860704700BF28604020A5
:1066B000064A00EBC00301211344054A5B78D25C13
:1066C000044B03EBC2035B68184700BFB2364100BE
:1066D000E5394100683A4100064A00EBC003002159
:1066E0001344054A5B78D25C044B03EBC2035B683E
:1066F000184700BFB2364100E5394100683A410011
:1067000008B5044B0221186801F028F8BDE80840DC
:1067100000F0F8BF104F402008B5044B0221186864
:1067200001F01CF8BDE8084000F0F4BF104F402015
:1067300008B5044B0221186801F010F8BDE80840C4
:1067400000F0F6BF104F402008B5044B0221186836
:1067500001F004F8BDE8084000F0F2BF104F4020FF
:10676000014B1B68184700BF28604020F8B507465A
:1067700000200E4614461D4604F050FF00213860EC
:106780002846316004F051FF2060F8BD38B50C4652
:106790000021154604F044FF23681844A8422060F5
:1067A00034BF0020012038BD704710B5D0B1436818
:1067B000C3B10268013B0C4902EBC2021B04885CB6
:1067C0008C180A4A03F47023617952F8302002EBE6
:1067D0008102D2F8801021F470210B4343F0004372
:1067E000C2F8803010BD00BFB2364100AC35410068
:1067F00098B10368094A03EBC303D25C084B53F812
:10680000321043688A68012B22F0FC4238BF012312
:106810005B0603F0FC4313438B607047B2364100C4
:10682000AC354100F0B5044685B000283BD0026885
:106830001E4D02EBC2021E49A818837801EB03111A
:10684000AB5C0279D1E90267142101FB0322194BE9
:10685000417953F82250636805EB81018A68EBB1F6
:10686000013BBB40534033405A4042F000428A60F3
:106870004CF2503303AA02A901A8FFF777FFEE6B91
:1068800002A9039A01A8FFF781FFF30709D50028A1
:10689000F5D021680120FFF763FF04E022F00042F9
:1068A000E5E70028F5D105B0F0BD00BFB2364100E4
:1068B00048324100C8354100704780B103680A4A38
:1068C00003EBC303D118D25C0B79142101FB023313
:1068D000064A52F82330426812B101225A637047C7
:1068E0005A6B22F00102F9E7B2364100C835410087
:1068F0007FB5044640B3436833B3036801A8134A25
:1069000003EBC303D118D25C0B79142101FB0233D2
:106910000F4A02A952F82350012303AAAB634CF299
:106920005033FFF723FFEE6B02A9039A01A8FFF78C
:106930002DFFF30706D50028F5D021680120FFF7C9
:106940000FFF01E00028F8D104B070BDB23641005D
:10695000C83541007047704758B10368054A03EBDA
:10696000C303D25C044B53F82220136823F00103C5
:1069700013607047B2364100BC354100E0B1038975
:10698000D3B103680D4A03EBC303D25C0C4B53F83D
:1069900022104389427B1B04120603F47F0302F09A
:1069A00080721343027B43EAC273827B1201D2B22C
:1069B000134343F001030B60704700BFB236410040
:1069C000BC354100054B00EBC0001A5C044B53F88A
:1069D0002220136823F0010313607047B236410090
:1069E000BC35410070B10389012B0BD10368064A05
:1069F00003EBC303D25C054B53F82220136843F02A
:106A000001031360704700BFB2364100BC3541003E
:106A10007FB5044628B303891BB3437B0BB3037BC9
:106A2000016803BB01EBC101124B03AA01A85D5C25
:106A30004CF2503302A9FFF799FE0F4B53F8255043
:106A40006E6802A9039A01A8FFF7A0FE002E06DBDC
:106A50000028F5D021680120FFF782FE01E0002820
:106A6000F8D104B070BD022004B0BDE87040FFF75B
:106A700077BE00BFB2364100BC35410070470020F0
:106A800070477047704770472DE9FF410446002862
:106A900073D003683A4A03EBC30381881344394A2D
:106AA0009B7912F8336002EBC302374B5778556875
:106AB00053F82630002930D053F8271029425CD1F2
:106AC00053F82710DFF8C880294343F827102F4BCD
:106AD00053F826301A6842F001021A605A6842F0F0
:106AE00001025A6000F036FD4CF2503303AA02A9AD
:106AF00001A8FFF73BFE039A02A901A8FFF746FE93
:106B000058F8263053F827302B4234D10028F2D0E1
:106B100021680120FFF724FE2FE053F827102942B7
:106B20002BD053F82710DFF8688021EA050143F8DD
:106B30002710164B53F826301A6842F001021A60EB
:106B40005A6842F001025A6000F004FD4CF25033E2
:106B500003AA02A901A8FFF709FE039A02A901A846
:106B6000FFF714FE58F8263053F827302B4202D096
:106B70000028F2D0CCE70028CAD104B0BDE8F081EB
:106B8000B2364100702B4100F4344100D43441004E
:106B9000E434410007B581F0010100906846ADF88A
:106BA0000410FFF771FF03B05DF804FB70477047F6
:106BB000024A936843F001039360704700002D4040
:106BC000024A936823F001039360704700002D4050
:106BD000024AD36843F48073D360704700802C402E
:106BE000024AD36823F48073D360704700802C403E
:106BF000F0B5044685B000282BD0C379013BDBB249
:106C0000022B26D8174A526E520F052A23D1164A54
:106C100002A9164E01A8D55C4CF2503303AAFFF727
:106C2000A5FDD6F8887102A9039A01A8FFF7AEFD69
:106C3000002F06DB0028F4D021680120FFF790FD2B
:106C400007E00028F8D1074A536E23F003031D43E1
:106C5000556605B0F0BD01680A2005B0BDE8F040FA
:106C6000FFF77EBD00C03940E815410000C02D404F
:106C700030B18288054B22B19A6842F001029A60D5
:106C800070479A6822F00102F9E700BF00002D402A
:106C900030B18288054B22B1DA6842F48072DA6042
:106CA0007047DA6822F48072F9E700BF00802C4058
:106CB00000F0EAB8704770477047F0B5002872D00E
:106CC0000779002F6FD00268374B02EBC204374EB2
:106CD00023441B7A06EB0316D0E9025334486A407A
:106CE000F4685A407A4050F8217097425AD040F8E0
:106CF0002120304A304F12687168126C795C02EBC7
:106D0000C1014868B0F57A7F4CD3B168795C02EB79
:106D1000C1025268B2F57A7F44D3B3F57A7F41D38A
:106D20004FF47A76B0FBF6F0B2FBF6F2B3FBF6F373
:106D300000EB400140F2C736B1FBF2F100EB8002FC
:106D400001314643B2FBF3F20932914238BF11469A
:106D500040F2F3325A435029B2FBF6F738BF5021C4
:106D600006FB17224A436160B2FBF6F240F2DD36C1
:106D700001FB0722734340F2094604327043B3FB20
:106D8000F0F600FB16334B43B3FBF0F301FB063385
:106D90000A49033B8A4294BFA260A160032B38BF1B
:106DA0000323E3606561F0BDB23641000435410064
:106DB000184F4020104F4020B84E4020FCFFFF00ED
:106DC00078B10368094A03EBC303017913441A7AC3
:106DD000074B03EB0213DA68136819B143F00103A0
:106DE0001360704723F00103FAE700BFB236410099
:106DF000043541007FB500EBC0021A4B0546134431
:106E00001A7A194B03EB0213DC6808F0E7FA2368DF
:106E1000DA071BD54CF2503303AA02A901A8FFF7E9
:106E2000A5FC266902A9039A01A8FFF7AFFCF306A7
:106E300006D40028F5D029460120FFF791FC01E097
:106E40000028F8D1236823F001032360636923F04D
:106E50000F036361236943F00303236108F0D8FA49
:106E600004B070BDB23641000435410008B100687D
:106E7000C0E77047034B53F82030186900F0030057
:106E8000704700BF90354100F8B50D4D00240D4E00
:106E90000D4F55F8042B3168136903F0030361B1FA
:106EA00051690B4005D057F8241000201361FFF7FB
:106EB00057FC0134072CECD1F8BD1361F9E700BF92
:106EC00090354100104F402074354100704702203A
:106ED0007047704710B590B103680E4A03EBC303C7
:106EE000D25C0D4B03EBC20153F8322000230C7926
:106EF000D9B28C4204D8136843F00043136010BD2C
:106F000002EB83000133D0F8801021F00041C0F87B
:106F10008010EDE7B2364100AC35410010B50028D5
:106F200044D08388002B41D00368214A03EBC3037C
:106F3000047DD25C1F4B53F83220437B91681B03C6
:106F400021F4E14103F4E04321F07F012343448A2B
:106F50000B431949C4F30E04936013691940037F6E
:106F60009B0703F0804323430B431361447D837DE0
:106F7000A107002C4FEA437301F0804103F0005356
:106F800043EA0103418B008BC1F30A0143EA010389
:106F90000A4901EA004143EA0103D3600CBF8023A0
:106FA00000239361136823F00043136010BD00BFFA
:106FB000B2364100AC3541000080FFBF0000FF0346
:106FC00070B18388012B0BD10368064A03EBC3031E
:106FD000D25C054B53F83220136823F00043136052
:106FE000704700BFB2364100AC3541007FB500EBC1
:106FF000C003134A0446D25C124B53F832502B683C
:10700000002B1BDB4CF2503303AA02A901A8FFF7A7
:10701000ADFB6E6802A9039A01A8FFF7B7FB7307DF
:1070200008D40028F5D001202146FFF799FB012064
:1070300004B070BD0028F6D10220F9E70020F7E780
:10704000B2364100AC3541007047F0B5002873D02E
:10705000C6680468036986EA0405DFF814E1D0E92C
:1070600001275D405EF8210055407D40A84263D075
:10707000DFF800C106EBC6064EF8215004EBC4044D
:107080001CF8066036486444364D50F826002D68DA
:10709000354E2D6C7678354905EBC605E4794A43C3
:1070A0006E68B3FBF1F3B6FBF1F640F638115943C5
:1070B000B2FBF1F2052A42D9C72A3ED80A2A3ED9A4
:1070C000972A34BF302570254FF4FA1206FB05FCD1
:1070D00002FB03F1B2FBF5F2B1FBFCF1891A4FF0B0
:1070E000804C01F580718C452BD80022BCF1000F3B
:1070F0002AD192007743BF32BFB2D109076004EBB7
:10710000440701FB05F200EB870745EA024501FB56
:1071100002227D604FF47A7552086B4302F2E73227
:10712000B3FBF6F3013BC2F31302C3F31303BB60DB
:107130000C2303FB0400C260F0BDB825C4E70C2596
:10714000C2E74FEA9C0CCEE70CEB020E8E459CBFCB
:1071500002EB4C02A1EB0E014FEA9C0C5208C5E772
:10716000C4354100104F4020B84E402040420F002F
:10717000244F4020B2364100704710B5C0B10368BB
:107180000C4803EBC3030C4CC1188A781201A458B5
:10719000C25C0B79142101FB0233084A52F82330F8
:1071A000196841F0080119601A6822EA04021A609D
:1071B00010BD00BFB236410048324100C835410021
:1071C000DBE72DE9FF41044600286ED0384A394EEE
:1071D000D0E90031384803EBC30332F81150C1182D
:1071E0008A78170106EB0212F759D2F80480C25CC4
:1071F0000B79142101FB0233304A52F82360736883
:107200003B4023FA08F3AB424FD04CF2503303AA71
:1072100002A901A8FFF7AAFA02A9039A01A8FFF799
:10722000B5FA7368D90304D50028F5D02168012088
:1072300039E00028FAD1336805FA08F503AA02A953
:107240005D4001A83D405D404CF2503345F00705DC
:107250003560FFF78BFA039A02A901A8FFF796FAA7
:1072600073685A0702D40028F5D0DFE70028DDD183
:107270004CF2503303AA02A901A8FFF777FA039A48
:1072800002A901A8FFF782FA7368DB0302D5002880
:10729000F5D0CBE70028C9D17368C3F34243012B73
:1072A00003D021680320FFF75BFA04B0BDE8F0814A
:1072B0003A36410048324100B2364100C8354100FB
:1072C0002DE9FF41044600286ED0394A394ED0E9F5
:1072D0000031394803EBC30332F81150C1188A78E2
:1072E000170106EB0212F759D2F80480C25C0B7941
:1072F000142101FB0233314A52F8236073683B408A
:1073000023FA08F3AB424FD04CF2503303AA02A940
:1073100001A8FFF72BFA02A9039A01A8FFF736FA92
:107320007368D90304D50028F5D02168012039E01D
:107330000028FAD1336805FA08F503AA02A95D40CE
:1073400001A83D405D404CF2503345F004053560E6
:10735000FFF70CFA039A02A901A8FFF717FA73685E
:107360005A0702D40028F5D0DFE70028DDD14CF21F
:10737000503303AA02A901A8FFF7F8F9039A02A95A
:1073800001A8FFF703FA7368DB0302D50028F5D0E4
:10739000CBE70028C9D17368C3F34243012B03D064
:1073A00021680320FFF7DCF904B0BDE8F08100BFDD
:1073B0003A36410048324100B2364100C8354100FA
:1073C0002DE9FF410546002855D02C4A2C4CD0E928
:1073D00000312C4803EBC30332F81160C1188A78DE
:1073E000170104EB0212E759D2F80480C25C01A82D
:1073F0000B79142101FB0233234A02A952F82340DE
:1074000003AA236843F0040323604CF25033FFF7D0
:10741000ADF9039A02A901A8FFF7B8F963689A03C6
:1074200004D50028F5D0296801201FE00028FAD1F2
:10743000236806FA08F603AA02A95E4001A83E40A6
:107440005E402660236823F00C0323604CF2503327
:10745000FFF78CF9039A02A901A8FFF797F963686F
:107460009B0306D40028F5D029680320FFF778F99C
:1074700001E00028F8D104B0BDE8F0813A364100BF
:1074800048324100B2364100C83541002DE9FF4184
:10749000064600283DD003681F4A2048D55C03EB10
:1074A000C3031F4CC1188A78170104EB0212E75975
:1074B000D2F80480C25C01A80B79142101FB0233CD
:1074C000184A02A952F8234003AA236843F0040390
:1074D00023604CF25033FFF749F9039A02A901A83F
:1074E000FFF754F963689B0306D50028F5D031688F
:1074F0000120FFF735F90CE00028F8D1236805FAE0
:1075000008F55D403D405D402560236823F00C0395
:10751000236004B0BDE8F0815C364100B236410022
:1075200048324100C83541004068064B064933F8EF
:1075300010304A681B0322F4405203F440531343B3
:107540004B607047183641000080284008B1FFF7B3
:10755000EBBF7047034B45F6F0221A604AF20F5218
:107560001A60704700C02D401FB5654CD4F8143325
:10757000D8012CD4D4F8343302A901A843F0807385
:10758000C4F83433D4F8003343F00103C4F80033B3
:10759000D4F8043343F00103C4F80433FFF7DAFFEF
:1075A0004CF2503303AAFFF7E1F802A9039A01A8AD
:1075B000FFF7ECF8D4F81433D90106D40028F4D03E
:1075C00006210120FFF7CCF801E00028F8D14C4C4F
:1075D000D4F814339A022CD4D4F8343302A901A875
:1075E00043F40013C4F83433D4F8003343F00103F8
:1075F000C4F80033D4F8043343F00103C4F804336F
:10760000FFF7A8FF4CF2503303AAFFF7AFF8039A35
:1076100002A901A8FFF7BAF8D4F814339B0206D4E4
:107620000028F4D005210120FFF79AF801E0002896
:10763000F8D1334CD4F8143318042CD4D4F83433A0
:1076400002A901A843F40043C4F83433D4F800334A
:1076500043F00103C4F80033D4F8043343F00103CA
:10766000C4F80433FFF776FF4CF2503303AAFFF758
:107670007DF802A9039A01A8FFF788F8D4F814331B
:10768000190406D40028F4D056210120FFF768F829
:1076900001E00028F8D11A4CD4F81033DA012CD4C8
:1076A000D4F8303302A901A843F08073C4F8303312
:1076B000D4F8003343F00103C4F80033D4F80433A2
:1076C00043F00103C4F80433FFF744FF4CF2503396
:1076D00003AAFFF74BF8039A02A901A8FFF756F88F
:1076E000D4F81033DB0106D40028F4D05621012051
:1076F000FFF736F801E00028F8D104B010BD00BF54
:1077000000C02D40024B01201B689B68184700BF3A
:107710002C4F40201FB5012301A8ADF80830034BC2
:107720001B685B68984705B05DF804FB2C4F402050
:10773000024B03201B689B68184700BF304F402056
:107740001FB5012301A8ADF80830034B1B685B6827
:10775000984705B05DF804FB304F4020012917D051
:10776000022917D10C4B1A78A2B901220B490C48F7
:107770001A70CB780B4A03EB430302EB83030360DD
:107780008B7803EB430302EB8302074B1A607047CD
:10779000FFF7EABE704700BF284F4020EE39410096
:1077A000304F4020783A41002C4F402009F018BF5C
:1077B000FFF7FCBF09F0E6BE7047F8B51C46074668
:1077C0000E461546FAF7A2FF054B23F81070054B3D
:1077D0001E54054B1D54054B1C540020F8BD00BF22
:1077E0003C8040204880402018804020208040205D
:1077F000F8B51C4607460E461546FAF787FF054BB7
:1078000023F81070044B1E54044B1D54044B1C549D
:107810000020F8BD2880402034804020388040205F
:1078200044804020F8B51C4607460E461546FAF738
:107830006DFF054B23F81070044B1E54044B1D5470
:10784000044B1C540020F8BD108040201C804020B8
:107850002480402030804020704700BF2DE9F8434D
:10786000DFF8549080460F461D461646FAF74EFF45
:1078700039F810300446DFF844E04345DFF840C0F3
:107880000C4915D11EF80030BB4211D11CF8003054
:10789000B3420DD10A5C531B58425841002329F8CA
:1078A00014300EF804300CF804300B55BDE8F883A2
:1078B0000020F3E7208040203C804020488040208A
:1078C000188040202DE9F843DFF8549080460F4699
:1078D0001D461646FAF71AFF39F810300446DFF84D
:1078E00044E04345DFF840C00C4915D11EF8003094
:1078F000BB4211D11CF80030B3420DD10A5C531BBE
:1079000058425841002329F814300EF804300CF87E
:1079100004300B55BDE8F8830020F3E74480402095
:107920002880402034804020388040202DE9F843D2
:10793000DFF8549080460F461D461646FAF7E6FEDD
:1079400039F810300446DFF844E04345DFF840C022
:107950000C4915D11EF80030BB4211D11CF8003083
:10796000B3420DD10A5C531B58425841002329F8F9
:1079700014300EF804300CF804300B55BDE8F883D1
:107980000020F3E730804020108040201C80402001
:107990002480402070B50E4EFAF7B8FE0D4D36F833
:1079A00010300D4C0D4983B92B5C73B9235C63B95E
:1079B0000B5C003B18BF0123002226F810202A543C
:1079C00022540A5483F0010070BD0123F4E700BF84
:1079D0003C8040204880402018804020208040206B
:1079E00070B50E4EFAF792FE0D4D36F810300D4C74
:1079F0000D4983B92B5C73B9235C63B90B5C003B05
:107A000018BF0123002226F810202A5422540A54B9
:107A100083F0010070BD0123F4E700BF28804020FF
:107A200034804020388040204480402070B50E4E85
:107A3000FAF76CFE0D4D36F810300D4C0D4983B938
:107A40002B5C73B9235C63B90B5C003B18BF01234B
:107A5000002226F810202A5422540A5483F00100F0
:107A600070BD0123F4E700BF108040201C8040203F
:107A7000248040203080402001F01F0201231F2974
:107A800003FA02F301D8036370473F2900D8C362A9
:107A900070471F2907D80123006B8B40034023FA4E
:107AA00001F0C0B270473F2907D8C36A01F01F0137
:107AB000012088401840C840F3E70020F1E7D0F8E3
:107AC000042C104B13408A68C0F8043C02F00702F3
:107AD0000B6810B59B02D0F8044C03F4F843224322
:107AE000CC6813434A685201D2B21343064A02EAF1
:107AF000045213430A69120402F4E0221343C0F84B
:107B0000043C10BD188308C00000F03F436823F018
:107B100007031B041B0C43600B68426803F0070358
:107B20001343CA6843EA02638A68120402F4E0223B
:107B300013434A68D20402F4601213430A6992059F
:107B400002F44002134343607047036D8A6803F0F8
:107B5000004302F01F0203650B6810B59B02046D21
:107B60009BB22243CC6813434A68520102F47872F4
:107B70001343054A02EA445213430A69120402F409
:107B8000F8121343036510BD0000E07FD0F8F42B1A
:107B9000144B13400A69C0F8F43B92058B6802F05D
:107BA000FE521B0303F4FE2310B51343D0F8F44B2D
:107BB0002343D1E9004222440132D2B21343C0F838
:107BC000F43BD0F8F03B23F47F7323F00303C0F8B9
:107BD000F03BCB68D0F8F02BC3F309031343C0F894
:107BE000F03B10BD000F38E0D0F8F82B144B1340D9
:107BF000C0F8F83BD1E9002310B513448A68D0F8E7
:107C0000F84B120303F01F0392B213430A69C968C9
:107C10009205234302F070721343C0F8F83BD0F88A
:107C2000F03B23F07F7323F44033C0F8F03B054B67
:107C3000D0F8F02B03EA01431343C0F8F03B10BD2A
:107C4000E00F3FFC0000FF03124B53F82030D3F845
:107C50000424012A1BD0104AC3F8001452F8202033
:107C60000120C3F80404D3F8200458B983F80804A9
:107C700093F82C340BB9002070474FF07043C2F8D2
:107C8000103C7047012808BF83F80804F3E702207E
:107C9000704700BF344F4020203B41001B4BF7B5DD
:107CA00053F8204006466368012B2AD0184BD4F8BD
:107CB000205453F82070012321609D42636008BF67
:107CC000257205BB94F82C340146062225723846ED
:107CD0000093012301F0CCFE94F82C3407223146A6
:107CE00000933846012301F0C3FE94F82C3405229A
:107CF000314600933846012301F0BAFE284603B00E
:107D0000F0BD0225FAE70025F8E700BF344F402018
:107D1000203B41002DE9F04188B0144603931B4BF2
:107D200053F8206006EB0118D8F804705FBB184BBD
:107D300053F82000FFF7A0FE0223C8F80C70C8F823
:107D40000430237B656888F80830E37A94F80AC029
:107D5000002B88F80930266814BF1C230C232489C3
:107D60000493ADF81C408DF81EC0CDE9056501F007
:107D70008FFC0E9B039A04A9009701F099FF3846E7
:107D800008B0BDE8F0810227F9E700BF344F40207A
:107D9000203B4100294B2DE9F04F53F820800D0185
:107DA000274B97B007460E4653F82040635904EB23
:107DB000011A0BB902AB63513146404601F053FE44
:107DC00062593146404601F02DFF31464046FFF7EB
:107DD00053FE0021D8F808306319CAF80410D4F80B
:107DE00010B493F80890BBF1000F03D0234632463D
:107DF0003846D847DAF804307BB925442B7AC3B922
